{
  "contractName": "PaymentSystem",
  "abi": [
    {
      "inputs": [
        {
          "internalType": "address",
          "name": "_recipient",
          "type": "address"
        },
        {
          "internalType": "uint256",
          "name": "_amount",
          "type": "uint256"
        }
      ],
      "name": "makePayment",
      "outputs": [],
      "stateMutability": "payable",
      "type": "function",
      "payable": true
    }
  ],
  "bytecode": "0x608060405234801561001057600080fd5b50610370806100206000396000f3fe60806040526004361061001e5760003560e01c8063f98cf07c14610023575b600080fd5b61003d600480360381019061003891906101cb565b61003f565b005b803414610081576040517f08c379a000000000000000000000000000000000000000000000000000000000815260040161007890610268565b60405180910390fd5b60008273ffffffffffffffffffffffffffffffffffffffff16346040516100a7906102b9565b60006040518083038185875af1925050503d80600081146100e4576040519150601f19603f3d011682016040523d82523d6000602084013e6100e9565b606091505b505090508061012d576040517f08c379a00000000000000000000000000000000000000000000000000000000081526004016101249061031a565b60405180910390fd5b505050565b600080fd5b600073ffffffffffffffffffffffffffffffffffffffff82169050919050565b600061016282610137565b9050919050565b61017281610157565b811461017d57600080fd5b50565b60008135905061018f81610169565b92915050565b6000819050919050565b6101a881610195565b81146101b357600080fd5b50565b6000813590506101c58161019f565b92915050565b600080604083850312156101e2576101e1610132565b5b60006101f085828601610180565b9250506020610201858286016101b6565b9150509250929050565b600082825260208201905092915050565b7f496e76616c6964207061796d656e740000000000000000000000000000000000600082015250565b6000610252600f8361020b565b915061025d8261021c565b602082019050919050565b6000602082019050818103600083015261028181610245565b9050919050565b600081905092915050565b50565b60006102a3600083610288565b91506102ae82610293565b600082019050919050565b60006102c482610296565b9150819050919050565b7f5061796d656e74206661696c6564000000000000000000000000000000000000600082015250565b6000610304600e8361020b565b915061030f826102ce565b602082019050919050565b60006020820190508181036000830152610333816102f7565b905091905056fea264697066735822122075a2a2099b743c9ed900091e738803db475e4830c5311c7b3fd3156d0fd5890b64736f6c634300080d0033",
  "immutableReferences": {},
  "source": "// SPDX-License-Identifier: MIT\r\npragma solidity ^0.8.0;\r\n\r\ncontract PaymentSystem {\r\n    function makePayment( address _recipient, uint _amount) public payable {\r\n        require(msg.value == _amount, \"Invalid payment\");\r\n        (bool success, ) = _recipient.call{ value : msg.value }(\"\");\r\n        require(success, \"Payment failed\");\r\n    }\r\n}",
  "sourcePath": "C:\\Users\\Admin\\ebookRental\\contracts\\PaymentSystem.sol",
  "compiler": {
    "name": "solc",
    "version": "0.8.13+commit.abaa5c0e.Emscripten.clang"
  },
  "schemaVersion": "3.4.16",
  "updatedAt": "2023-12-17T07:59:31.921Z",
  "networkType": "ethereum",
  "devdoc": {
    "kind": "dev",
    "methods": {},
    "version": 1
  },
  "userdoc": {
    "kind": "user",
    "methods": {},
    "version": 1
  }
}