{
  "contractName": "PublisherManagement",
  "abi": [
    {
      "anonymous": false,
      "inputs": [
        {
          "indexed": true,
          "internalType": "address",
          "name": "publisherAddress",
          "type": "address"
        },
        {
          "indexed": true,
          "internalType": "uint256",
          "name": "bookId",
          "type": "uint256"
        },
        {
          "indexed": false,
          "internalType": "string",
          "name": "name",
          "type": "string"
        },
        {
          "indexed": false,
          "internalType": "string",
          "name": "description",
          "type": "string"
        },
        {
          "indexed": false,
          "internalType": "string",
          "name": "authorName",
          "type": "string"
        },
        {
          "indexed": false,
          "internalType": "uint256",
          "name": "price",
          "type": "uint256"
        }
      ],
      "name": "BookAdded",
      "type": "event"
    },
    {
      "anonymous": false,
      "inputs": [
        {
          "indexed": true,
          "internalType": "address",
          "name": "publisherAddress",
          "type": "address"
        }
      ],
      "name": "PublisherRegistered",
      "type": "event"
    },
    {
      "inputs": [
        {
          "internalType": "address",
          "name": "",
          "type": "address"
        }
      ],
      "name": "publishers",
      "outputs": [
        {
          "internalType": "string",
          "name": "name",
          "type": "string"
        },
        {
          "internalType": "string",
          "name": "contactDetails",
          "type": "string"
        }
      ],
      "stateMutability": "view",
      "type": "function",
      "constant": true
    },
    {
      "inputs": [
        {
          "internalType": "string",
          "name": "_name",
          "type": "string"
        },
        {
          "internalType": "string",
          "name": "_contactDetails",
          "type": "string"
        }
      ],
      "name": "registerPublisher",
      "outputs": [],
      "stateMutability": "nonpayable",
      "type": "function"
    },
    {
      "inputs": [
        {
          "internalType": "uint256",
          "name": "_bookId",
          "type": "uint256"
        },
        {
          "internalType": "string",
          "name": "_name",
          "type": "string"
        },
        {
          "internalType": "string",
          "name": "_description",
          "type": "string"
        },
        {
          "internalType": "string",
          "name": "_authorName",
          "type": "string"
        },
        {
          "internalType": "uint256",
          "name": "_price",
          "type": "uint256"
        }
      ],
      "name": "addBookList",
      "outputs": [],
      "stateMutability": "nonpayable",
      "type": "function"
    },
    {
      "inputs": [
        {
          "internalType": "address",
          "name": "_publisherAddress",
          "type": "address"
        },
        {
          "internalType": "uint256",
          "name": "_bookId",
          "type": "uint256"
        }
      ],
      "name": "getBookInfo",
      "outputs": [
        {
          "internalType": "string",
          "name": "",
          "type": "string"
        },
        {
          "internalType": "string",
          "name": "",
          "type": "string"
        },
        {
          "internalType": "string",
          "name": "",
          "type": "string"
        },
        {
          "internalType": "uint256",
          "name": "",
          "type": "uint256"
        }
      ],
      "stateMutability": "view",
      "type": "function",
      "constant": true
    }
  ],
  "bytecode": "0x608060405234801561001057600080fd5b50611066806100206000396000f3fe608060405234801561001057600080fd5b506004361061004c5760003560e01c806309d55530146100515780630a4d85cd146100845780631b340eb3146100b5578063c5b477cd146100d1575b600080fd5b61006b60048036038101906100669190610926565b6100ed565b60405161007b9493929190610a0e565b60405180910390f35b61009e60048036038101906100999190610a68565b610310565b6040516100ac929190610a95565b60405180910390f35b6100cf60048036038101906100ca9190610c01565b610444565b005b6100eb60048036038101906100e69190610cd0565b610660565b005b60608060606000806000808873ffffffffffffffffffffffffffffffffffffffff1673ffffffffffffffffffffffffffffffffffffffff16815260200190815260200160002060020160008781526020019081526020016000209050806000018160010182600201836003015483805461016690610d77565b80601f016020809104026020016040519081016040528092919081815260200182805461019290610d77565b80156101df5780601f106101b4576101008083540402835291602001916101df565b820191906000526020600020905b8154815290600101906020018083116101c257829003601f168201915b505050505093508280546101f290610d77565b80601f016020809104026020016040519081016040528092919081815260200182805461021e90610d77565b801561026b5780601f106102405761010080835404028352916020019161026b565b820191906000526020600020905b81548152906001019060200180831161024e57829003601f168201915b5050505050925081805461027e90610d77565b80601f01602080910402602001604051908101604052809291908181526020018280546102aa90610d77565b80156102f75780601f106102cc576101008083540402835291602001916102f7565b820191906000526020600020905b8154815290600101906020018083116102da57829003601f168201915b5050505050915094509450945094505092959194509250565b600060205280600052604060002060009150905080600001805461033390610d77565b80601f016020809104026020016040519081016040528092919081815260200182805461035f90610d77565b80156103ac5780601f10610381576101008083540402835291602001916103ac565b820191906000526020600020905b81548152906001019060200180831161038f57829003601f168201915b5050505050908060010180546103c190610d77565b80601f01602080910402602001604051908101604052809291908181526020018280546103ed90610d77565b801561043a5780601f1061040f5761010080835404028352916020019161043a565b820191906000526020600020905b81548152906001019060200180831161041d57829003601f168201915b5050505050905082565b6000845111610488576040517f08c379a000000000000000000000000000000000000000000000000000000000815260040161047f90610df4565b60405180910390fd5b60008351116104cc576040517f08c379a00000000000000000000000000000000000000000000000000000000081526004016104c390610e60565b60405180910390fd5b6000825111610510576040517f08c379a000000000000000000000000000000000000000000000000000000000815260040161050790610ecc565b60405180910390fd5b60008111610553576040517f08c379a000000000000000000000000000000000000000000000000000000000815260040161054a90610f38565b60405180910390fd5b60008060003373ffffffffffffffffffffffffffffffffffffffff1673ffffffffffffffffffffffffffffffffffffffff168152602001908152602001600020905060008160020160008881526020019081526020016000209050858160000190805190602001906105c69291906107db565b50848160010190805190602001906105df9291906107db565b50838160020190805190602001906105f89291906107db565b50828160030181905550863373ffffffffffffffffffffffffffffffffffffffff167fd7af8714750be69c58145fab3167f3b21e1da906115e444b25e2b85ccf8696318888888860405161064f9493929190610a0e565b60405180910390a350505050505050565b60008251116106a4576040517f08c379a000000000000000000000000000000000000000000000000000000000815260040161069b90610fa4565b60405180910390fd5b60008151116106e8576040517f08c379a00000000000000000000000000000000000000000000000000000000081526004016106df90611010565b60405180910390fd5b816000803373ffffffffffffffffffffffffffffffffffffffff1673ffffffffffffffffffffffffffffffffffffffff168152602001908152602001600020600001908051906020019061073d9291906107db565b50806000803373ffffffffffffffffffffffffffffffffffffffff1673ffffffffffffffffffffffffffffffffffffffff16815260200190815260200160002060010190805190602001906107939291906107db565b503373ffffffffffffffffffffffffffffffffffffffff167f0872a00e2e723113f8d7a5be0f126918ee1e51d7416f8f1400c5ad86cbc927e360405160405180910390a25050565b8280546107e790610d77565b90600052602060002090601f0160209004810192826108095760008555610850565b82601f1061082257805160ff1916838001178555610850565b82800160010185558215610850579182015b8281111561084f578251825591602001919060010190610834565b5b50905061085d9190610861565b5090565b5b8082111561087a576000816000905550600101610862565b5090565b6000604051905090565b600080fd5b600080fd5b600073ffffffffffffffffffffffffffffffffffffffff82169050919050565b60006108bd82610892565b9050919050565b6108cd816108b2565b81146108d857600080fd5b50565b6000813590506108ea816108c4565b92915050565b6000819050919050565b610903816108f0565b811461090e57600080fd5b50565b600081359050610920816108fa565b92915050565b6000806040838503121561093d5761093c610888565b5b600061094b858286016108db565b925050602061095c85828601610911565b9150509250929050565b600081519050919050565b600082825260208201905092915050565b60005b838110156109a0578082015181840152602081019050610985565b838111156109af576000848401525b50505050565b6000601f19601f8301169050919050565b60006109d182610966565b6109db8185610971565b93506109eb818560208601610982565b6109f4816109b5565b840191505092915050565b610a08816108f0565b82525050565b60006080820190508181036000830152610a2881876109c6565b90508181036020830152610a3c81866109c6565b90508181036040830152610a5081856109c6565b9050610a5f60608301846109ff565b95945050505050565b600060208284031215610a7e57610a7d610888565b5b6000610a8c848285016108db565b91505092915050565b60006040820190508181036000830152610aaf81856109c6565b90508181036020830152610ac381846109c6565b90509392505050565b600080fd5b600080fd5b7f4e487b7100000000000000000000000000000000000000000000000000000000600052604160045260246000fd5b610b0e826109b5565b810181811067ffffffffffffffff82111715610b2d57610b2c610ad6565b5b80604052505050565b6000610b4061087e565b9050610b4c8282610b05565b919050565b600067ffffffffffffffff821115610b6c57610b6b610ad6565b5b610b75826109b5565b9050602081019050919050565b82818337600083830152505050565b6000610ba4610b9f84610b51565b610b36565b905082815260208101848484011115610bc057610bbf610ad1565b5b610bcb848285610b82565b509392505050565b600082601f830112610be857610be7610acc565b5b8135610bf8848260208601610b91565b91505092915050565b600080600080600060a08688031215610c1d57610c1c610888565b5b6000610c2b88828901610911565b955050602086013567ffffffffffffffff811115610c4c57610c4b61088d565b5b610c5888828901610bd3565b945050604086013567ffffffffffffffff811115610c7957610c7861088d565b5b610c8588828901610bd3565b935050606086013567ffffffffffffffff811115610ca657610ca561088d565b5b610cb288828901610bd3565b9250506080610cc388828901610911565b9150509295509295909350565b60008060408385031215610ce757610ce6610888565b5b600083013567ffffffffffffffff811115610d0557610d0461088d565b5b610d1185828601610bd3565b925050602083013567ffffffffffffffff811115610d3257610d3161088d565b5b610d3e85828601610bd3565b9150509250929050565b7f4e487b7100000000000000000000000000000000000000000000000000000000600052602260045260246000fd5b60006002820490506001821680610d8f57607f821691505b602082108103610da257610da1610d48565b5b50919050565b7f4e616d6520697320726571756972656400000000000000000000000000000000600082015250565b6000610dde601083610971565b9150610de982610da8565b602082019050919050565b60006020820190508181036000830152610e0d81610dd1565b9050919050565b7f4465736372697074696f6e206973207265717569726564000000000000000000600082015250565b6000610e4a601783610971565b9150610e5582610e14565b602082019050919050565b60006020820190508181036000830152610e7981610e3d565b9050919050565b7f417574686f72206e616d65206973207265717569726564000000000000000000600082015250565b6000610eb6601783610971565b9150610ec182610e80565b602082019050919050565b60006020820190508181036000830152610ee581610ea9565b9050919050565b7f5072696365206d7573742062652067726561746572207468616e207a65726f00600082015250565b6000610f22601f83610971565b9150610f2d82610eec565b602082019050919050565b60006020820190508181036000830152610f5181610f15565b9050919050565b7f4e616d6520697320726571756972650000000000000000000000000000000000600082015250565b6000610f8e600f83610971565b9150610f9982610f58565b602082019050919050565b60006020820190508181036000830152610fbd81610f81565b9050919050565b7f436f6e74726163742064657461696c7320617265207265717569726500000000600082015250565b6000610ffa601c83610971565b915061100582610fc4565b602082019050919050565b6000602082019050818103600083015261102981610fed565b905091905056fea26469706673582212205eefb8a6d57d25c98d91a9da80fb71e040619d5538aecc50d816058dafe553a864736f6c634300080d0033",
  "immutableReferences": {},
  "source": "// SPDX-License-Identifier: MIT\r\npragma solidity ^0.8.0;\r\n\r\ncontract PublisherManagement {\r\n    struct Publisher {\r\n        string name;\r\n        string contactDetails;\r\n        mapping(uint => Book) books;\r\n    }\r\n    struct Book {\r\n        string name;\r\n        string description;\r\n        string authorName;\r\n        uint price;\r\n    }\r\n\r\n    mapping(address => Publisher) public publishers;\r\n\r\n    event PublisherRegistered(address indexed publisherAddress);\r\n    event BookAdded(\r\n        address indexed publisherAddress,\r\n        uint indexed bookId,\r\n        string name,\r\n        string description,\r\n        string authorName,\r\n        uint price\r\n    );\r\n\r\n    function registerPublisher(\r\n        string memory _name,\r\n        string memory _contactDetails\r\n    ) public {\r\n        require(bytes(_name).length > 0, \"Name is require\");\r\n        require( bytes(_contactDetails).length > 0, \"Contract details are require\");\r\n\r\n        publishers[msg.sender].name = _name;\r\n        publishers[msg.sender].contactDetails = _contactDetails;\r\n\r\n        emit PublisherRegistered(msg.sender);\r\n    }\r\n\r\n    function addBookList(\r\n        uint _bookId,\r\n        string memory _name,\r\n        string memory _description,\r\n        string memory _authorName,\r\n        uint _price\r\n    ) public {\r\n        require(bytes(_name).length > 0, \"Name is required\");\r\n        require(bytes(_description).length > 0, \"Description is required\");\r\n        require(bytes(_authorName).length > 0, \"Author name is required\");\r\n        require(_price > 0, \"Price must be greater than zero\");\r\n\r\n        Publisher storage publisher = publishers[msg.sender];\r\n\r\n        Book storage book = publisher.books[_bookId];\r\n        book.name = _name;\r\n        book.description = _description;\r\n        book.authorName = _authorName;\r\n        book.price = _price;\r\n\r\n        emit BookAdded(msg.sender, _bookId, _name, _description, _authorName, _price);\r\n    }\r\n\r\n    function getBookInfo(\r\n        address _publisherAddress,\r\n        uint _bookId\r\n    ) public view returns (string memory, string memory, string memory, uint) {\r\n        Book storage book = publishers[_publisherAddress].books[_bookId];\r\n        return (book.name, book.description, book.authorName, book.price);\r\n    }\r\n}\r\n",
  "sourcePath": "C:\\Users\\Admin\\ebookRental\\contracts\\PublisherManagement.sol",
  "compiler": {
    "name": "solc",
    "version": "0.8.13+commit.abaa5c0e.Emscripten.clang"
  },
  "schemaVersion": "3.4.16",
  "updatedAt": "2023-12-01T15:46:06.524Z",
  "networkType": "ethereum",
  "devdoc": {
    "kind": "dev",
    "methods": {},
    "version": 1
  },
  "userdoc": {
    "kind": "user",
    "methods": {},
    "version": 1
  }
}