{
  "contractName": "PublisherManagement",
  "abi": [
    {
      "anonymous": false,
      "inputs": [
        {
          "indexed": true,
          "internalType": "address",
          "name": "publisherAddress",
          "type": "address"
        },
        {
          "indexed": true,
          "internalType": "uint256",
          "name": "bookId",
          "type": "uint256"
        },
        {
          "indexed": false,
          "internalType": "string",
          "name": "name",
          "type": "string"
        },
        {
          "indexed": false,
          "internalType": "string",
          "name": "description",
          "type": "string"
        },
        {
          "indexed": false,
          "internalType": "string",
          "name": "authorName",
          "type": "string"
        },
        {
          "indexed": false,
          "internalType": "uint256",
          "name": "price",
          "type": "uint256"
        }
      ],
      "name": "BookAdded",
      "type": "event"
    },
    {
      "anonymous": false,
      "inputs": [
        {
          "indexed": true,
          "internalType": "address",
          "name": "publisherAddress",
          "type": "address"
        }
      ],
      "name": "PublisherRegistered",
      "type": "event"
    },
    {
      "inputs": [
        {
          "internalType": "address",
          "name": "",
          "type": "address"
        }
      ],
      "name": "publishers",
      "outputs": [
        {
          "internalType": "string",
          "name": "name",
          "type": "string"
        },
        {
          "internalType": "string",
          "name": "contactDetails",
          "type": "string"
        }
      ],
      "stateMutability": "view",
      "type": "function",
      "constant": true
    },
    {
      "inputs": [
        {
          "internalType": "string",
          "name": "_name",
          "type": "string"
        },
        {
          "internalType": "string",
          "name": "_contactDetails",
          "type": "string"
        }
      ],
      "name": "registerPublisher",
      "outputs": [],
      "stateMutability": "nonpayable",
      "type": "function"
    },
    {
      "inputs": [
        {
          "internalType": "uint256",
          "name": "_bookId",
          "type": "uint256"
        },
        {
          "internalType": "string",
          "name": "_name",
          "type": "string"
        },
        {
          "internalType": "string",
          "name": "_description",
          "type": "string"
        },
        {
          "internalType": "string",
          "name": "_authorName",
          "type": "string"
        },
        {
          "internalType": "uint256",
          "name": "_price",
          "type": "uint256"
        }
      ],
      "name": "addBookList",
      "outputs": [],
      "stateMutability": "nonpayable",
      "type": "function"
    },
    {
      "inputs": [
        {
          "internalType": "address",
          "name": "_publisherAddress",
          "type": "address"
        },
        {
          "internalType": "uint256",
          "name": "_bookId",
          "type": "uint256"
        }
      ],
      "name": "getBookInfo",
      "outputs": [
        {
          "internalType": "string",
          "name": "",
          "type": "string"
        },
        {
          "internalType": "string",
          "name": "",
          "type": "string"
        },
        {
          "internalType": "string",
          "name": "",
          "type": "string"
        },
        {
          "internalType": "uint256",
          "name": "",
          "type": "uint256"
        }
      ],
      "stateMutability": "view",
      "type": "function",
      "constant": true
    },
    {
      "inputs": [
        {
          "internalType": "address",
          "name": "_publisherAddress",
          "type": "address"
        }
      ],
      "name": "getPublisherName",
      "outputs": [
        {
          "internalType": "string",
          "name": "",
          "type": "string"
        }
      ],
      "stateMutability": "view",
      "type": "function",
      "constant": true
    }
  ],
  "bytecode": "0x608060405234801561001057600080fd5b50611196806100206000396000f3fe608060405234801561001057600080fd5b50600436106100575760003560e01c806309d555301461005c5780630a4d85cd1461008f5780631b340eb3146100c057806325ed4211146100dc578063c5b477cd1461010c575b600080fd5b61007660048036038101906100719190610a34565b610128565b6040516100869493929190610b1c565b60405180910390f35b6100a960048036038101906100a49190610b76565b61034b565b6040516100b7929190610ba3565b60405180910390f35b6100da60048036038101906100d59190610d0f565b61047f565b005b6100f660048036038101906100f19190610b76565b61069b565b6040516101039190610dde565b60405180910390f35b61012660048036038101906101219190610e00565b61076e565b005b60608060606000806000808873ffffffffffffffffffffffffffffffffffffffff1673ffffffffffffffffffffffffffffffffffffffff1681526020019081526020016000206002016000878152602001908152602001600020905080600001816001018260020183600301548380546101a190610ea7565b80601f01602080910402602001604051908101604052809291908181526020018280546101cd90610ea7565b801561021a5780601f106101ef5761010080835404028352916020019161021a565b820191906000526020600020905b8154815290600101906020018083116101fd57829003601f168201915b5050505050935082805461022d90610ea7565b80601f016020809104026020016040519081016040528092919081815260200182805461025990610ea7565b80156102a65780601f1061027b576101008083540402835291602001916102a6565b820191906000526020600020905b81548152906001019060200180831161028957829003601f168201915b505050505092508180546102b990610ea7565b80601f01602080910402602001604051908101604052809291908181526020018280546102e590610ea7565b80156103325780601f1061030757610100808354040283529160200191610332565b820191906000526020600020905b81548152906001019060200180831161031557829003601f168201915b5050505050915094509450945094505092959194509250565b600060205280600052604060002060009150905080600001805461036e90610ea7565b80601f016020809104026020016040519081016040528092919081815260200182805461039a90610ea7565b80156103e75780601f106103bc576101008083540402835291602001916103e7565b820191906000526020600020905b8154815290600101906020018083116103ca57829003601f168201915b5050505050908060010180546103fc90610ea7565b80601f016020809104026020016040519081016040528092919081815260200182805461042890610ea7565b80156104755780601f1061044a57610100808354040283529160200191610475565b820191906000526020600020905b81548152906001019060200180831161045857829003601f168201915b5050505050905082565b60008451116104c3576040517f08c379a00000000000000000000000000000000000000000000000000000000081526004016104ba90610f24565b60405180910390fd5b6000835111610507576040517f08c379a00000000000000000000000000000000000000000000000000000000081526004016104fe90610f90565b60405180910390fd5b600082511161054b576040517f08c379a000000000000000000000000000000000000000000000000000000000815260040161054290610ffc565b60405180910390fd5b6000811161058e576040517f08c379a000000000000000000000000000000000000000000000000000000000815260040161058590611068565b60405180910390fd5b60008060003373ffffffffffffffffffffffffffffffffffffffff1673ffffffffffffffffffffffffffffffffffffffff168152602001908152602001600020905060008160020160008881526020019081526020016000209050858160000190805190602001906106019291906108e9565b508481600101908051906020019061061a9291906108e9565b50838160020190805190602001906106339291906108e9565b50828160030181905550863373ffffffffffffffffffffffffffffffffffffffff167fd7af8714750be69c58145fab3167f3b21e1da906115e444b25e2b85ccf8696318888888860405161068a9493929190610b1c565b60405180910390a350505050505050565b60606000808373ffffffffffffffffffffffffffffffffffffffff1673ffffffffffffffffffffffffffffffffffffffff16815260200190815260200160002060000180546106e990610ea7565b80601f016020809104026020016040519081016040528092919081815260200182805461071590610ea7565b80156107625780601f1061073757610100808354040283529160200191610762565b820191906000526020600020905b81548152906001019060200180831161074557829003601f168201915b50505050509050919050565b60008251116107b2576040517f08c379a00000000000000000000000000000000000000000000000000000000081526004016107a9906110d4565b60405180910390fd5b60008151116107f6576040517f08c379a00000000000000000000000000000000000000000000000000000000081526004016107ed90611140565b60405180910390fd5b816000803373ffffffffffffffffffffffffffffffffffffffff1673ffffffffffffffffffffffffffffffffffffffff168152602001908152602001600020600001908051906020019061084b9291906108e9565b50806000803373ffffffffffffffffffffffffffffffffffffffff1673ffffffffffffffffffffffffffffffffffffffff16815260200190815260200160002060010190805190602001906108a19291906108e9565b503373ffffffffffffffffffffffffffffffffffffffff167f0872a00e2e723113f8d7a5be0f126918ee1e51d7416f8f1400c5ad86cbc927e360405160405180910390a25050565b8280546108f590610ea7565b90600052602060002090601f016020900481019282610917576000855561095e565b82601f1061093057805160ff191683800117855561095e565b8280016001018555821561095e579182015b8281111561095d578251825591602001919060010190610942565b5b50905061096b919061096f565b5090565b5b80821115610988576000816000905550600101610970565b5090565b6000604051905090565b600080fd5b600080fd5b600073ffffffffffffffffffffffffffffffffffffffff82169050919050565b60006109cb826109a0565b9050919050565b6109db816109c0565b81146109e657600080fd5b50565b6000813590506109f8816109d2565b92915050565b6000819050919050565b610a11816109fe565b8114610a1c57600080fd5b50565b600081359050610a2e81610a08565b92915050565b60008060408385031215610a4b57610a4a610996565b5b6000610a59858286016109e9565b9250506020610a6a85828601610a1f565b9150509250929050565b600081519050919050565b600082825260208201905092915050565b60005b83811015610aae578082015181840152602081019050610a93565b83811115610abd576000848401525b50505050565b6000601f19601f8301169050919050565b6000610adf82610a74565b610ae98185610a7f565b9350610af9818560208601610a90565b610b0281610ac3565b840191505092915050565b610b16816109fe565b82525050565b60006080820190508181036000830152610b368187610ad4565b90508181036020830152610b4a8186610ad4565b90508181036040830152610b5e8185610ad4565b9050610b6d6060830184610b0d565b95945050505050565b600060208284031215610b8c57610b8b610996565b5b6000610b9a848285016109e9565b91505092915050565b60006040820190508181036000830152610bbd8185610ad4565b90508181036020830152610bd18184610ad4565b90509392505050565b600080fd5b600080fd5b7f4e487b7100000000000000000000000000000000000000000000000000000000600052604160045260246000fd5b610c1c82610ac3565b810181811067ffffffffffffffff82111715610c3b57610c3a610be4565b5b80604052505050565b6000610c4e61098c565b9050610c5a8282610c13565b919050565b600067ffffffffffffffff821115610c7a57610c79610be4565b5b610c8382610ac3565b9050602081019050919050565b82818337600083830152505050565b6000610cb2610cad84610c5f565b610c44565b905082815260208101848484011115610cce57610ccd610bdf565b5b610cd9848285610c90565b509392505050565b600082601f830112610cf657610cf5610bda565b5b8135610d06848260208601610c9f565b91505092915050565b600080600080600060a08688031215610d2b57610d2a610996565b5b6000610d3988828901610a1f565b955050602086013567ffffffffffffffff811115610d5a57610d5961099b565b5b610d6688828901610ce1565b945050604086013567ffffffffffffffff811115610d8757610d8661099b565b5b610d9388828901610ce1565b935050606086013567ffffffffffffffff811115610db457610db361099b565b5b610dc088828901610ce1565b9250506080610dd188828901610a1f565b9150509295509295909350565b60006020820190508181036000830152610df88184610ad4565b905092915050565b60008060408385031215610e1757610e16610996565b5b600083013567ffffffffffffffff811115610e3557610e3461099b565b5b610e4185828601610ce1565b925050602083013567ffffffffffffffff811115610e6257610e6161099b565b5b610e6e85828601610ce1565b9150509250929050565b7f4e487b7100000000000000000000000000000000000000000000000000000000600052602260045260246000fd5b60006002820490506001821680610ebf57607f821691505b602082108103610ed257610ed1610e78565b5b50919050565b7f4e616d6520697320726571756972656400000000000000000000000000000000600082015250565b6000610f0e601083610a7f565b9150610f1982610ed8565b602082019050919050565b60006020820190508181036000830152610f3d81610f01565b9050919050565b7f4465736372697074696f6e206973207265717569726564000000000000000000600082015250565b6000610f7a601783610a7f565b9150610f8582610f44565b602082019050919050565b60006020820190508181036000830152610fa981610f6d565b9050919050565b7f417574686f72206e616d65206973207265717569726564000000000000000000600082015250565b6000610fe6601783610a7f565b9150610ff182610fb0565b602082019050919050565b6000602082019050818103600083015261101581610fd9565b9050919050565b7f5072696365206d7573742062652067726561746572207468616e207a65726f00600082015250565b6000611052601f83610a7f565b915061105d8261101c565b602082019050919050565b6000602082019050818103600083015261108181611045565b9050919050565b7f4e616d6520697320726571756972650000000000000000000000000000000000600082015250565b60006110be600f83610a7f565b91506110c982611088565b602082019050919050565b600060208201905081810360008301526110ed816110b1565b9050919050565b7f436f6e74726163742064657461696c7320617265207265717569726500000000600082015250565b600061112a601c83610a7f565b9150611135826110f4565b602082019050919050565b600060208201905081810360008301526111598161111d565b905091905056fea2646970667358221220b43addf1bec6d63864d60947109306423e59cc0c9a38bc75c6792df4e1bc30ad64736f6c634300080d0033",
  "immutableReferences": {},
  "source": "// SPDX-License-Identifier: MIT\r\npragma solidity ^0.8.0;\r\n\r\ncontract PublisherManagement {\r\n    struct Publisher {\r\n        string name;\r\n        string contactDetails;\r\n        mapping(uint => Book) books;\r\n    }\r\n    struct Book {\r\n        string name;\r\n        string description;\r\n        string authorName;\r\n        uint price;\r\n    }\r\n\r\n    mapping(address => Publisher) public publishers;\r\n\r\n    event PublisherRegistered(address indexed publisherAddress);\r\n    event BookAdded(\r\n        address indexed publisherAddress,\r\n        uint indexed bookId,\r\n        string name,\r\n        string description,\r\n        string authorName,\r\n        uint price\r\n    );\r\n\r\n    function registerPublisher(\r\n        string memory _name,\r\n        string memory _contactDetails\r\n    ) public {\r\n        require(bytes(_name).length > 0, \"Name is require\");\r\n        require( bytes(_contactDetails).length > 0, \"Contract details are require\");\r\n\r\n        publishers[msg.sender].name = _name;\r\n        publishers[msg.sender].contactDetails = _contactDetails;\r\n\r\n        emit PublisherRegistered(msg.sender);\r\n    }\r\n\r\n    function addBookList(\r\n        uint _bookId,\r\n        string memory _name,\r\n        string memory _description,\r\n        string memory _authorName,\r\n        uint _price\r\n    ) public {\r\n        require(bytes(_name).length > 0, \"Name is required\");\r\n        require(bytes(_description).length > 0, \"Description is required\");\r\n        require(bytes(_authorName).length > 0, \"Author name is required\");\r\n        require(_price > 0, \"Price must be greater than zero\");\r\n\r\n        Publisher storage publisher = publishers[msg.sender];\r\n\r\n        Book storage book = publisher.books[_bookId];\r\n        book.name = _name;\r\n        book.description = _description;\r\n        book.authorName = _authorName;\r\n        book.price = _price;\r\n\r\n        emit BookAdded(msg.sender, _bookId, _name, _description, _authorName, _price);\r\n    }\r\n\r\n    function getBookInfo(\r\n        address _publisherAddress,\r\n        uint _bookId\r\n    ) public view returns (string memory, string memory, string memory, uint) {\r\n        Book storage book = publishers[_publisherAddress].books[_bookId];\r\n        return (book.name, book.description, book.authorName, book.price);\r\n    }\r\n\r\n    function getPublisherName(address _publisherAddress) public view returns (string memory) {\r\n    return publishers[_publisherAddress].name;\r\n}\r\n\r\n}\r\n",
  "sourcePath": "C:\\Users\\Admin\\ebookRental\\contracts\\PublisherManagement.sol",
  "compiler": {
    "name": "solc",
    "version": "0.8.13+commit.abaa5c0e.Emscripten.clang"
  },
  "schemaVersion": "3.4.16",
  "updatedAt": "2023-12-17T07:59:31.926Z",
  "networkType": "ethereum",
  "devdoc": {
    "kind": "dev",
    "methods": {},
    "version": 1
  },
  "userdoc": {
    "kind": "user",
    "methods": {},
    "version": 1
  }
}