{
  "contractName": "UserRegistration",
  "abi": [
    {
      "inputs": [],
      "stateMutability": "nonpayable",
      "type": "constructor"
    },
    {
      "anonymous": false,
      "inputs": [
        {
          "indexed": true,
          "internalType": "address",
          "name": "userAddress",
          "type": "address"
        },
        {
          "indexed": false,
          "internalType": "string",
          "name": "newUsername",
          "type": "string"
        },
        {
          "indexed": false,
          "internalType": "string",
          "name": "newEmail",
          "type": "string"
        }
      ],
      "name": "UserProfileUpdated",
      "type": "event"
    },
    {
      "anonymous": false,
      "inputs": [
        {
          "indexed": true,
          "internalType": "address",
          "name": "userAddress",
          "type": "address"
        },
        {
          "indexed": false,
          "internalType": "string",
          "name": "username",
          "type": "string"
        },
        {
          "indexed": false,
          "internalType": "string",
          "name": "email",
          "type": "string"
        }
      ],
      "name": "UserRegistered",
      "type": "event"
    },
    {
      "inputs": [],
      "name": "owner",
      "outputs": [
        {
          "internalType": "address",
          "name": "",
          "type": "address"
        }
      ],
      "stateMutability": "view",
      "type": "function",
      "constant": true
    },
    {
      "inputs": [
        {
          "internalType": "address",
          "name": "",
          "type": "address"
        }
      ],
      "name": "users",
      "outputs": [
        {
          "internalType": "bool",
          "name": "isRegistered",
          "type": "bool"
        },
        {
          "internalType": "string",
          "name": "username",
          "type": "string"
        },
        {
          "internalType": "string",
          "name": "email",
          "type": "string"
        },
        {
          "internalType": "string",
          "name": "passwordHash",
          "type": "string"
        }
      ],
      "stateMutability": "view",
      "type": "function",
      "constant": true
    },
    {
      "inputs": [
        {
          "internalType": "string",
          "name": "_username",
          "type": "string"
        },
        {
          "internalType": "string",
          "name": "_email",
          "type": "string"
        },
        {
          "internalType": "string",
          "name": "_passwordHash",
          "type": "string"
        }
      ],
      "name": "registerUser",
      "outputs": [],
      "stateMutability": "nonpayable",
      "type": "function"
    },
    {
      "inputs": [
        {
          "internalType": "string",
          "name": "_newUsername",
          "type": "string"
        },
        {
          "internalType": "string",
          "name": "_newEmail",
          "type": "string"
        },
        {
          "internalType": "string",
          "name": "_password",
          "type": "string"
        }
      ],
      "name": "updateProfile",
      "outputs": [],
      "stateMutability": "nonpayable",
      "type": "function"
    }
  ],
  "bytecode": "0x608060405234801561001057600080fd5b50336000806101000a81548173ffffffffffffffffffffffffffffffffffffffff021916908373ffffffffffffffffffffffffffffffffffffffff16021790555061131e806100606000396000f3fe608060405234801561001057600080fd5b506004361061004c5760003560e01c80631105a5eb146100515780638da5cb5b1461006d578063a87430ba1461008b578063d637dcfa146100be575b600080fd5b61006b60048036038101906100669190610ad9565b6100da565b005b610075610455565b6040516100829190610bc1565b60405180910390f35b6100a560048036038101906100a09190610c08565b610479565b6040516100b59493929190610cd8565b60405180910390f35b6100d860048036038101906100d39190610ad9565b61064e565b005b600160003373ffffffffffffffffffffffffffffffffffffffff1673ffffffffffffffffffffffffffffffffffffffff16815260200190815260200160002060000160009054906101000a900460ff16610169576040517f08c379a000000000000000000000000000000000000000000000000000000000815260040161016090610d7e565b60405180910390fd5b806002600160003373ffffffffffffffffffffffffffffffffffffffff1673ffffffffffffffffffffffffffffffffffffffff1681526020019081526020016000206003016040516020016101be9190610e9d565b6040516020818303038152906040526040516101da9190610efb565b602060405180830381855afa1580156101f7573d6000803e3d6000fd5b5050506040513d601f19601f8201168201806040525081019061021a9190610f48565b60028260405160200161022d9190610fa6565b6040516020818303038152906040526040516102499190610efb565b602060405180830381855afa158015610266573d6000803e3d6000fd5b5050506040513d601f19601f820116820180604052508101906102899190610f48565b146102c9576040517f08c379a00000000000000000000000000000000000000000000000000000000081526004016102c090611009565b60405180910390fd5b600084511161030d576040517f08c379a000000000000000000000000000000000000000000000000000000000815260040161030490611075565b60405180910390fd5b6000835111610351576040517f08c379a0000000000000000000000000000000000000000000000000000000008152600401610348906110e1565b60405180910390fd5b83600160003373ffffffffffffffffffffffffffffffffffffffff1673ffffffffffffffffffffffffffffffffffffffff16815260200190815260200160002060010190805190602001906103a79291906108dc565b5082600160003373ffffffffffffffffffffffffffffffffffffffff1673ffffffffffffffffffffffffffffffffffffffff16815260200190815260200160002060020190805190602001906103fe9291906108dc565b503373ffffffffffffffffffffffffffffffffffffffff167fc13dafd9d9a1258e2f2de748cef0b799dbcc614ed620f5b0564ae615a759795c8585604051610447929190611101565b60405180910390a250505050565b60008054906101000a900473ffffffffffffffffffffffffffffffffffffffff1681565b60016020528060005260406000206000915090508060000160009054906101000a900460ff16908060010180546104af90610dcd565b80601f01602080910402602001604051908101604052809291908181526020018280546104db90610dcd565b80156105285780601f106104fd57610100808354040283529160200191610528565b820191906000526020600020905b81548152906001019060200180831161050b57829003601f168201915b50505050509080600201805461053d90610dcd565b80601f016020809104026020016040519081016040528092919081815260200182805461056990610dcd565b80156105b65780601f1061058b576101008083540402835291602001916105b6565b820191906000526020600020905b81548152906001019060200180831161059957829003601f168201915b5050505050908060030180546105cb90610dcd565b80601f01602080910402602001604051908101604052809291908181526020018280546105f790610dcd565b80156106445780601f1061061957610100808354040283529160200191610644565b820191906000526020600020905b81548152906001019060200180831161062757829003601f168201915b5050505050905084565b600160003373ffffffffffffffffffffffffffffffffffffffff1673ffffffffffffffffffffffffffffffffffffffff16815260200190815260200160002060000160009054906101000a900460ff16156106de576040517f08c379a00000000000000000000000000000000000000000000000000000000081526004016106d590611184565b60405180910390fd5b6000835111610722576040517f08c379a0000000000000000000000000000000000000000000000000000000008152600401610719906111f0565b60405180910390fd5b6000825111610766576040517f08c379a000000000000000000000000000000000000000000000000000000000815260040161075d9061125c565b60405180910390fd5b60008151116107aa576040517f08c379a00000000000000000000000000000000000000000000000000000000081526004016107a1906112c8565b60405180910390fd5b604051806080016040528060011515815260200184815260200183815260200182815250600160003373ffffffffffffffffffffffffffffffffffffffff1673ffffffffffffffffffffffffffffffffffffffff16815260200190815260200160002060008201518160000160006101000a81548160ff02191690831515021790555060208201518160010190805190602001906108499291906108dc565b5060408201518160020190805190602001906108669291906108dc565b5060608201518160030190805190602001906108839291906108dc565b509050503373ffffffffffffffffffffffffffffffffffffffff167f92822564bab8864c3a47b34e8d23fbce5c46234eb5da261f94087b995ac0f33b84846040516108cf929190611101565b60405180910390a2505050565b8280546108e890610dcd565b90600052602060002090601f01602090048101928261090a5760008555610951565b82601f1061092357805160ff1916838001178555610951565b82800160010185558215610951579182015b82811115610950578251825591602001919060010190610935565b5b50905061095e9190610962565b5090565b5b8082111561097b576000816000905550600101610963565b5090565b6000604051905090565b600080fd5b600080fd5b600080fd5b600080fd5b6000601f19601f8301169050919050565b7f4e487b7100000000000000000000000000000000000000000000000000000000600052604160045260246000fd5b6109e68261099d565b810181811067ffffffffffffffff82111715610a0557610a046109ae565b5b80604052505050565b6000610a1861097f565b9050610a2482826109dd565b919050565b600067ffffffffffffffff821115610a4457610a436109ae565b5b610a4d8261099d565b9050602081019050919050565b82818337600083830152505050565b6000610a7c610a7784610a29565b610a0e565b905082815260208101848484011115610a9857610a97610998565b5b610aa3848285610a5a565b509392505050565b600082601f830112610ac057610abf610993565b5b8135610ad0848260208601610a69565b91505092915050565b600080600060608486031215610af257610af1610989565b5b600084013567ffffffffffffffff811115610b1057610b0f61098e565b5b610b1c86828701610aab565b935050602084013567ffffffffffffffff811115610b3d57610b3c61098e565b5b610b4986828701610aab565b925050604084013567ffffffffffffffff811115610b6a57610b6961098e565b5b610b7686828701610aab565b9150509250925092565b600073ffffffffffffffffffffffffffffffffffffffff82169050919050565b6000610bab82610b80565b9050919050565b610bbb81610ba0565b82525050565b6000602082019050610bd66000830184610bb2565b92915050565b610be581610ba0565b8114610bf057600080fd5b50565b600081359050610c0281610bdc565b92915050565b600060208284031215610c1e57610c1d610989565b5b6000610c2c84828501610bf3565b91505092915050565b60008115159050919050565b610c4a81610c35565b82525050565b600081519050919050565b600082825260208201905092915050565b60005b83811015610c8a578082015181840152602081019050610c6f565b83811115610c99576000848401525b50505050565b6000610caa82610c50565b610cb48185610c5b565b9350610cc4818560208601610c6c565b610ccd8161099d565b840191505092915050565b6000608082019050610ced6000830187610c41565b8181036020830152610cff8186610c9f565b90508181036040830152610d138185610c9f565b90508181036060830152610d278184610c9f565b905095945050505050565b7f55736572206973206e6f74207265676973746572656400000000000000000000600082015250565b6000610d68601683610c5b565b9150610d7382610d32565b602082019050919050565b60006020820190508181036000830152610d9781610d5b565b9050919050565b7f4e487b7100000000000000000000000000000000000000000000000000000000600052602260045260246000fd5b60006002820490506001821680610de557607f821691505b602082108103610df857610df7610d9e565b5b50919050565b600081905092915050565b60008190508160005260206000209050919050565b60008154610e2b81610dcd565b610e358186610dfe565b94506001821660008114610e505760018114610e6157610e94565b60ff19831686528186019350610e94565b610e6a85610e09565b60005b83811015610e8c57815481890152600182019150602081019050610e6d565b838801955050505b50505092915050565b6000610ea98284610e1e565b915081905092915050565b600081519050919050565b600081905092915050565b6000610ed582610eb4565b610edf8185610ebf565b9350610eef818560208601610c6c565b80840191505092915050565b6000610f078284610eca565b915081905092915050565b6000819050919050565b610f2581610f12565b8114610f3057600080fd5b50565b600081519050610f4281610f1c565b92915050565b600060208284031215610f5e57610f5d610989565b5b6000610f6c84828501610f33565b91505092915050565b6000610f8082610c50565b610f8a8185610dfe565b9350610f9a818560208601610c6c565b80840191505092915050565b6000610fb28284610f75565b915081905092915050565b7f496e636f72726563742070617373776f72640000000000000000000000000000600082015250565b6000610ff3601283610c5b565b9150610ffe82610fbd565b602082019050919050565b6000602082019050818103600083015261102281610fe6565b9050919050565b7f4e657720757365726e616d652063616e6e6f7420626520656d70747900000000600082015250565b600061105f601c83610c5b565b915061106a82611029565b602082019050919050565b6000602082019050818103600083015261108e81611052565b9050919050565b7f4e657720656d61696c2063616e6e6f7420626520656d70747900000000000000600082015250565b60006110cb601983610c5b565b91506110d682611095565b602082019050919050565b600060208201905081810360008301526110fa816110be565b9050919050565b6000604082019050818103600083015261111b8185610c9f565b9050818103602083015261112f8184610c9f565b90509392505050565b7f5573657220697320616c72656164792072656769737465726564000000000000600082015250565b600061116e601a83610c5b565b915061117982611138565b602082019050919050565b6000602082019050818103600083015261119d81611161565b9050919050565b7f557365726e616d652063616e6e6f7420626520656d7074790000000000000000600082015250565b60006111da601883610c5b565b91506111e5826111a4565b602082019050919050565b60006020820190508181036000830152611209816111cd565b9050919050565b7f456d61696c2063616e6e6f7420626520656d7074790000000000000000000000600082015250565b6000611246601583610c5b565b915061125182611210565b602082019050919050565b6000602082019050818103600083015261127581611239565b9050919050565b7f50617373776f726420686173682063616e6e6f7420626520656d707479000000600082015250565b60006112b2601d83610c5b565b91506112bd8261127c565b602082019050919050565b600060208201905081810360008301526112e1816112a5565b905091905056fea26469706673582212200a47ce73d0e71837840ebe2569bb6fd346d2787e4326540795476661e3b4d8f564736f6c634300080d0033",
  "immutableReferences": {},
  "source": "// SPDX-License-Identifier: MIT\r\npragma solidity ^0.8.0;\r\n\r\ncontract UserRegistration {\r\n    address public owner;\r\n    \r\n    struct User {\r\n        bool isRegistered;\r\n        string username;\r\n        string email;\r\n        string passwordHash; // Use this to store the hashed version of the password\r\n    }\r\n\r\n    mapping(address => User) public users;\r\n\r\n    event UserRegistered(address indexed userAddress, string username, string email);\r\n    event UserProfileUpdated(address indexed userAddress, string newUsername, string newEmail);\r\n\r\n    modifier onlyOwner() {\r\n        require(msg.sender == owner, \"Only the owner can call this function\");\r\n        _;\r\n    }\r\n\r\n    modifier notRegistered() {\r\n        require(!users[msg.sender].isRegistered, \"User is already registered\");\r\n        _;\r\n    }\r\n\r\n    modifier isRegistered() {\r\n        require(users[msg.sender].isRegistered, \"User is not registered\");\r\n        _;\r\n    }\r\n\r\n    modifier verifyPassword(string memory _password) {\r\n        require(\r\n            sha256(abi.encodePacked(_password)) == sha256(abi.encodePacked(users[msg.sender].passwordHash)),\r\n            \"Incorrect password\"\r\n        );\r\n        _;\r\n    }\r\n\r\n    constructor() {\r\n        owner = msg.sender;\r\n    }\r\n\r\n    function registerUser(string memory _username, string memory _email, string memory _passwordHash) external notRegistered {\r\n        require(bytes(_username).length > 0, \"Username cannot be empty\");\r\n        require(bytes(_email).length > 0, \"Email cannot be empty\");\r\n        require(bytes(_passwordHash).length > 0, \"Password hash cannot be empty\");\r\n\r\n        users[msg.sender] = User({\r\n            isRegistered: true,\r\n            username: _username,\r\n            email: _email,\r\n            passwordHash: _passwordHash\r\n        });\r\n\r\n        emit UserRegistered(msg.sender, _username, _email);\r\n    }\r\n\r\n    function updateProfile(string memory _newUsername, string memory _newEmail, string memory _password) external isRegistered verifyPassword(_password) {\r\n        require(bytes(_newUsername).length > 0, \"New username cannot be empty\");\r\n        require(bytes(_newEmail).length > 0, \"New email cannot be empty\");\r\n\r\n        users[msg.sender].username = _newUsername;\r\n        users[msg.sender].email = _newEmail;\r\n\r\n        emit UserProfileUpdated(msg.sender, _newUsername, _newEmail);\r\n    }\r\n\r\n}\r\n",
  "sourcePath": "C:\\Users\\Admin\\ebookRental\\contracts\\UserRegistration.sol",
  "compiler": {
    "name": "solc",
    "version": "0.8.13+commit.abaa5c0e.Emscripten.clang"
  },
  "schemaVersion": "3.4.16",
  "updatedAt": "2023-12-01T15:46:06.533Z",
  "networkType": "ethereum",
  "devdoc": {
    "kind": "dev",
    "methods": {},
    "version": 1
  },
  "userdoc": {
    "kind": "user",
    "methods": {},
    "version": 1
  }
}