{
  "contractName": "UserRegistration",
  "abi": [
    {
      "inputs": [],
      "stateMutability": "nonpayable",
      "type": "constructor"
    },
    {
      "anonymous": false,
      "inputs": [
        {
          "indexed": true,
          "internalType": "address",
          "name": "userAddress",
          "type": "address"
        },
        {
          "indexed": false,
          "internalType": "string",
          "name": "newUsername",
          "type": "string"
        },
        {
          "indexed": false,
          "internalType": "string",
          "name": "newEmail",
          "type": "string"
        }
      ],
      "name": "UserProfileUpdated",
      "type": "event"
    },
    {
      "anonymous": false,
      "inputs": [
        {
          "indexed": true,
          "internalType": "address",
          "name": "userAddress",
          "type": "address"
        },
        {
          "indexed": false,
          "internalType": "string",
          "name": "username",
          "type": "string"
        },
        {
          "indexed": false,
          "internalType": "string",
          "name": "email",
          "type": "string"
        }
      ],
      "name": "UserRegistered",
      "type": "event"
    },
    {
      "inputs": [],
      "name": "owner",
      "outputs": [
        {
          "internalType": "address",
          "name": "",
          "type": "address"
        }
      ],
      "stateMutability": "view",
      "type": "function",
      "constant": true
    },
    {
      "inputs": [
        {
          "internalType": "address",
          "name": "",
          "type": "address"
        }
      ],
      "name": "users",
      "outputs": [
        {
          "internalType": "bool",
          "name": "isRegistered",
          "type": "bool"
        },
        {
          "internalType": "string",
          "name": "username",
          "type": "string"
        },
        {
          "internalType": "string",
          "name": "email",
          "type": "string"
        },
        {
          "internalType": "string",
          "name": "passwordHash",
          "type": "string"
        }
      ],
      "stateMutability": "view",
      "type": "function",
      "constant": true
    },
    {
      "inputs": [
        {
          "internalType": "string",
          "name": "_username",
          "type": "string"
        },
        {
          "internalType": "string",
          "name": "_email",
          "type": "string"
        },
        {
          "internalType": "string",
          "name": "_passwordHash",
          "type": "string"
        }
      ],
      "name": "registerUser",
      "outputs": [],
      "stateMutability": "nonpayable",
      "type": "function"
    },
    {
      "inputs": [
        {
          "internalType": "string",
          "name": "_newUsername",
          "type": "string"
        },
        {
          "internalType": "string",
          "name": "_newEmail",
          "type": "string"
        },
        {
          "internalType": "string",
          "name": "_password",
          "type": "string"
        }
      ],
      "name": "updateProfile",
      "outputs": [],
      "stateMutability": "nonpayable",
      "type": "function"
    },
    {
      "inputs": [
        {
          "internalType": "address",
          "name": "userAddress",
          "type": "address"
        }
      ],
      "name": "isUserRegistered",
      "outputs": [
        {
          "internalType": "bool",
          "name": "",
          "type": "bool"
        }
      ],
      "stateMutability": "view",
      "type": "function",
      "constant": true
    }
  ],
  "bytecode": "0x608060405234801561001057600080fd5b50336000806101000a81548173ffffffffffffffffffffffffffffffffffffffff021916908373ffffffffffffffffffffffffffffffffffffffff1602179055506113cd806100606000396000f3fe608060405234801561001057600080fd5b50600436106100575760003560e01c80631105a5eb1461005c578063163f7522146100785780638da5cb5b146100a8578063a87430ba146100c6578063d637dcfa146100f9575b600080fd5b61007660048036038101906100719190610b6d565b610115565b005b610092600480360381019061008d9190610c72565b610490565b60405161009f9190610cba565b60405180910390f35b6100b06104e9565b6040516100bd9190610ce4565b60405180910390f35b6100e060048036038101906100db9190610c72565b61050d565b6040516100f09493929190610d87565b60405180910390f35b610113600480360381019061010e9190610b6d565b6106e2565b005b600160003373ffffffffffffffffffffffffffffffffffffffff1673ffffffffffffffffffffffffffffffffffffffff16815260200190815260200160002060000160009054906101000a900460ff166101a4576040517f08c379a000000000000000000000000000000000000000000000000000000000815260040161019b90610e2d565b60405180910390fd5b806002600160003373ffffffffffffffffffffffffffffffffffffffff1673ffffffffffffffffffffffffffffffffffffffff1681526020019081526020016000206003016040516020016101f99190610f4c565b6040516020818303038152906040526040516102159190610faa565b602060405180830381855afa158015610232573d6000803e3d6000fd5b5050506040513d601f19601f820116820180604052508101906102559190610ff7565b6002826040516020016102689190611055565b6040516020818303038152906040526040516102849190610faa565b602060405180830381855afa1580156102a1573d6000803e3d6000fd5b5050506040513d601f19601f820116820180604052508101906102c49190610ff7565b14610304576040517f08c379a00000000000000000000000000000000000000000000000000000000081526004016102fb906110b8565b60405180910390fd5b6000845111610348576040517f08c379a000000000000000000000000000000000000000000000000000000000815260040161033f90611124565b60405180910390fd5b600083511161038c576040517f08c379a000000000000000000000000000000000000000000000000000000000815260040161038390611190565b60405180910390fd5b83600160003373ffffffffffffffffffffffffffffffffffffffff1673ffffffffffffffffffffffffffffffffffffffff16815260200190815260200160002060010190805190602001906103e2929190610970565b5082600160003373ffffffffffffffffffffffffffffffffffffffff1673ffffffffffffffffffffffffffffffffffffffff1681526020019081526020016000206002019080519060200190610439929190610970565b503373ffffffffffffffffffffffffffffffffffffffff167fc13dafd9d9a1258e2f2de748cef0b799dbcc614ed620f5b0564ae615a759795c85856040516104829291906111b0565b60405180910390a250505050565b6000600160008373ffffffffffffffffffffffffffffffffffffffff1673ffffffffffffffffffffffffffffffffffffffff16815260200190815260200160002060000160009054906101000a900460ff169050919050565b60008054906101000a900473ffffffffffffffffffffffffffffffffffffffff1681565b60016020528060005260406000206000915090508060000160009054906101000a900460ff169080600101805461054390610e7c565b80601f016020809104026020016040519081016040528092919081815260200182805461056f90610e7c565b80156105bc5780601f10610591576101008083540402835291602001916105bc565b820191906000526020600020905b81548152906001019060200180831161059f57829003601f168201915b5050505050908060020180546105d190610e7c565b80601f01602080910402602001604051908101604052809291908181526020018280546105fd90610e7c565b801561064a5780601f1061061f5761010080835404028352916020019161064a565b820191906000526020600020905b81548152906001019060200180831161062d57829003601f168201915b50505050509080600301805461065f90610e7c565b80601f016020809104026020016040519081016040528092919081815260200182805461068b90610e7c565b80156106d85780601f106106ad576101008083540402835291602001916106d8565b820191906000526020600020905b8154815290600101906020018083116106bb57829003601f168201915b5050505050905084565b600160003373ffffffffffffffffffffffffffffffffffffffff1673ffffffffffffffffffffffffffffffffffffffff16815260200190815260200160002060000160009054906101000a900460ff1615610772576040517f08c379a000000000000000000000000000000000000000000000000000000000815260040161076990611233565b60405180910390fd5b60008351116107b6576040517f08c379a00000000000000000000000000000000000000000000000000000000081526004016107ad9061129f565b60405180910390fd5b60008251116107fa576040517f08c379a00000000000000000000000000000000000000000000000000000000081526004016107f19061130b565b60405180910390fd5b600081511161083e576040517f08c379a000000000000000000000000000000000000000000000000000000000815260040161083590611377565b60405180910390fd5b604051806080016040528060011515815260200184815260200183815260200182815250600160003373ffffffffffffffffffffffffffffffffffffffff1673ffffffffffffffffffffffffffffffffffffffff16815260200190815260200160002060008201518160000160006101000a81548160ff02191690831515021790555060208201518160010190805190602001906108dd929190610970565b5060408201518160020190805190602001906108fa929190610970565b506060820151816003019080519060200190610917929190610970565b509050503373ffffffffffffffffffffffffffffffffffffffff167f92822564bab8864c3a47b34e8d23fbce5c46234eb5da261f94087b995ac0f33b84846040516109639291906111b0565b60405180910390a2505050565b82805461097c90610e7c565b90600052602060002090601f01602090048101928261099e57600085556109e5565b82601f106109b757805160ff19168380011785556109e5565b828001600101855582156109e5579182015b828111156109e45782518255916020019190600101906109c9565b5b5090506109f291906109f6565b5090565b5b80821115610a0f5760008160009055506001016109f7565b5090565b6000604051905090565b600080fd5b600080fd5b600080fd5b600080fd5b6000601f19601f8301169050919050565b7f4e487b7100000000000000000000000000000000000000000000000000000000600052604160045260246000fd5b610a7a82610a31565b810181811067ffffffffffffffff82111715610a9957610a98610a42565b5b80604052505050565b6000610aac610a13565b9050610ab88282610a71565b919050565b600067ffffffffffffffff821115610ad857610ad7610a42565b5b610ae182610a31565b9050602081019050919050565b82818337600083830152505050565b6000610b10610b0b84610abd565b610aa2565b905082815260208101848484011115610b2c57610b2b610a2c565b5b610b37848285610aee565b509392505050565b600082601f830112610b5457610b53610a27565b5b8135610b64848260208601610afd565b91505092915050565b600080600060608486031215610b8657610b85610a1d565b5b600084013567ffffffffffffffff811115610ba457610ba3610a22565b5b610bb086828701610b3f565b935050602084013567ffffffffffffffff811115610bd157610bd0610a22565b5b610bdd86828701610b3f565b925050604084013567ffffffffffffffff811115610bfe57610bfd610a22565b5b610c0a86828701610b3f565b9150509250925092565b600073ffffffffffffffffffffffffffffffffffffffff82169050919050565b6000610c3f82610c14565b9050919050565b610c4f81610c34565b8114610c5a57600080fd5b50565b600081359050610c6c81610c46565b92915050565b600060208284031215610c8857610c87610a1d565b5b6000610c9684828501610c5d565b91505092915050565b60008115159050919050565b610cb481610c9f565b82525050565b6000602082019050610ccf6000830184610cab565b92915050565b610cde81610c34565b82525050565b6000602082019050610cf96000830184610cd5565b92915050565b600081519050919050565b600082825260208201905092915050565b60005b83811015610d39578082015181840152602081019050610d1e565b83811115610d48576000848401525b50505050565b6000610d5982610cff565b610d638185610d0a565b9350610d73818560208601610d1b565b610d7c81610a31565b840191505092915050565b6000608082019050610d9c6000830187610cab565b8181036020830152610dae8186610d4e565b90508181036040830152610dc28185610d4e565b90508181036060830152610dd68184610d4e565b905095945050505050565b7f55736572206973206e6f74207265676973746572656400000000000000000000600082015250565b6000610e17601683610d0a565b9150610e2282610de1565b602082019050919050565b60006020820190508181036000830152610e4681610e0a565b9050919050565b7f4e487b7100000000000000000000000000000000000000000000000000000000600052602260045260246000fd5b60006002820490506001821680610e9457607f821691505b602082108103610ea757610ea6610e4d565b5b50919050565b600081905092915050565b60008190508160005260206000209050919050565b60008154610eda81610e7c565b610ee48186610ead565b94506001821660008114610eff5760018114610f1057610f43565b60ff19831686528186019350610f43565b610f1985610eb8565b60005b83811015610f3b57815481890152600182019150602081019050610f1c565b838801955050505b50505092915050565b6000610f588284610ecd565b915081905092915050565b600081519050919050565b600081905092915050565b6000610f8482610f63565b610f8e8185610f6e565b9350610f9e818560208601610d1b565b80840191505092915050565b6000610fb68284610f79565b915081905092915050565b6000819050919050565b610fd481610fc1565b8114610fdf57600080fd5b50565b600081519050610ff181610fcb565b92915050565b60006020828403121561100d5761100c610a1d565b5b600061101b84828501610fe2565b91505092915050565b600061102f82610cff565b6110398185610ead565b9350611049818560208601610d1b565b80840191505092915050565b60006110618284611024565b915081905092915050565b7f496e636f72726563742070617373776f72640000000000000000000000000000600082015250565b60006110a2601283610d0a565b91506110ad8261106c565b602082019050919050565b600060208201905081810360008301526110d181611095565b9050919050565b7f4e657720757365726e616d652063616e6e6f7420626520656d70747900000000600082015250565b600061110e601c83610d0a565b9150611119826110d8565b602082019050919050565b6000602082019050818103600083015261113d81611101565b9050919050565b7f4e657720656d61696c2063616e6e6f7420626520656d70747900000000000000600082015250565b600061117a601983610d0a565b915061118582611144565b602082019050919050565b600060208201905081810360008301526111a98161116d565b9050919050565b600060408201905081810360008301526111ca8185610d4e565b905081810360208301526111de8184610d4e565b90509392505050565b7f5573657220697320616c72656164792072656769737465726564000000000000600082015250565b600061121d601a83610d0a565b9150611228826111e7565b602082019050919050565b6000602082019050818103600083015261124c81611210565b9050919050565b7f557365726e616d652063616e6e6f7420626520656d7074790000000000000000600082015250565b6000611289601883610d0a565b915061129482611253565b602082019050919050565b600060208201905081810360008301526112b88161127c565b9050919050565b7f456d61696c2063616e6e6f7420626520656d7074790000000000000000000000600082015250565b60006112f5601583610d0a565b9150611300826112bf565b602082019050919050565b60006020820190508181036000830152611324816112e8565b9050919050565b7f50617373776f726420686173682063616e6e6f7420626520656d707479000000600082015250565b6000611361601d83610d0a565b915061136c8261132b565b602082019050919050565b6000602082019050818103600083015261139081611354565b905091905056fea26469706673582212208092fd655d34617459b20a9c3786af96fd1f46db5d25087e00042051d7cd168e64736f6c634300080d0033",
  "immutableReferences": {},
  "source": "// SPDX-License-Identifier: MIT\r\npragma solidity ^0.8.0;\r\n\r\ncontract UserRegistration {\r\n    address public owner;\r\n    \r\n    struct User {\r\n        bool isRegistered;\r\n        string username;\r\n        string email;\r\n        string passwordHash; // Use this to store the hashed version of the password\r\n    }\r\n\r\n    mapping(address => User) public users;\r\n\r\n    event UserRegistered(address indexed userAddress, string username, string email);\r\n    event UserProfileUpdated(address indexed userAddress, string newUsername, string newEmail);\r\n\r\n    modifier onlyOwner() {\r\n        require(msg.sender == owner, \"Only the owner can call this function\");\r\n        _;\r\n    }\r\n\r\n    modifier notRegistered() {\r\n        require(!users[msg.sender].isRegistered, \"User is already registered\");\r\n        _;\r\n    }\r\n\r\n    modifier isRegistered() {\r\n        require(users[msg.sender].isRegistered, \"User is not registered\");\r\n        _;\r\n    }\r\n\r\n    modifier verifyPassword(string memory _password) {\r\n        require(\r\n            sha256(abi.encodePacked(_password)) == sha256(abi.encodePacked(users[msg.sender].passwordHash)),\r\n            \"Incorrect password\"\r\n        );\r\n        _;\r\n    }\r\n\r\n    constructor() {\r\n        owner = msg.sender;\r\n    }\r\n\r\n    function registerUser(string memory _username, string memory _email, string memory _passwordHash) external notRegistered {\r\n        require(bytes(_username).length > 0, \"Username cannot be empty\");\r\n        require(bytes(_email).length > 0, \"Email cannot be empty\");\r\n        require(bytes(_passwordHash).length > 0, \"Password hash cannot be empty\");\r\n\r\n        users[msg.sender] = User({\r\n            isRegistered: true,\r\n            username: _username,\r\n            email: _email,\r\n            passwordHash: _passwordHash\r\n        });\r\n\r\n        emit UserRegistered(msg.sender, _username, _email);\r\n    }\r\n\r\n    function updateProfile(string memory _newUsername, string memory _newEmail, string memory _password) external isRegistered verifyPassword(_password) {\r\n        require(bytes(_newUsername).length > 0, \"New username cannot be empty\");\r\n        require(bytes(_newEmail).length > 0, \"New email cannot be empty\");\r\n\r\n        users[msg.sender].username = _newUsername;\r\n        users[msg.sender].email = _newEmail;\r\n\r\n        emit UserProfileUpdated(msg.sender, _newUsername, _newEmail);\r\n    }\r\n\r\n    function isUserRegistered(address userAddress) external view returns (bool) {\r\n    return users[userAddress].isRegistered;\r\n}\r\n\r\n\r\n}\r\n",
  "sourcePath": "C:\\Users\\Admin\\ebookRental\\contracts\\UserRegistration.sol",
  "compiler": {
    "name": "solc",
    "version": "0.8.13+commit.abaa5c0e.Emscripten.clang"
  },
  "schemaVersion": "3.4.16",
  "updatedAt": "2023-12-17T07:59:31.933Z",
  "networkType": "ethereum",
  "devdoc": {
    "kind": "dev",
    "methods": {},
    "version": 1
  },
  "userdoc": {
    "kind": "user",
    "methods": {},
    "version": 1
  }
}